{
  "contractName": "Voting",
  "abi": [
    {
      "inputs": [],
      "stateMutability": "nonpayable",
      "type": "constructor"
    },
    {
      "anonymous": false,
      "inputs": [
        {
          "indexed": false,
          "internalType": "uint256",
          "name": "proj_id",
          "type": "uint256"
        },
        {
          "indexed": false,
          "internalType": "address",
          "name": "add",
          "type": "address"
        }
      ],
      "name": "Voted",
      "type": "event"
    },
    {
      "anonymous": false,
      "inputs": [
        {
          "indexed": false,
          "internalType": "uint256",
          "name": "limit_val",
          "type": "uint256"
        }
      ],
      "name": "changed_proposal_limit",
      "type": "event"
    },
    {
      "anonymous": false,
      "inputs": [
        {
          "indexed": false,
          "internalType": "uint256",
          "name": "project_num",
          "type": "uint256"
        }
      ],
      "name": "increased_proj_num",
      "type": "event"
    },
    {
      "anonymous": false,
      "inputs": [
        {
          "indexed": false,
          "internalType": "uint256",
          "name": "proposed_num",
          "type": "uint256"
        }
      ],
      "name": "increased_proj_proposed",
      "type": "event"
    },
    {
      "anonymous": false,
      "inputs": [
        {
          "indexed": false,
          "internalType": "uint256",
          "name": "proj_id",
          "type": "uint256"
        },
        {
          "indexed": false,
          "internalType": "address",
          "name": "add",
          "type": "address"
        }
      ],
      "name": "logging_vote",
      "type": "event"
    },
    {
      "anonymous": false,
      "inputs": [
        {
          "indexed": false,
          "internalType": "uint256",
          "name": "project_num",
          "type": "uint256"
        },
        {
          "indexed": false,
          "internalType": "string",
          "name": "description",
          "type": "string"
        },
        {
          "indexed": false,
          "internalType": "uint256",
          "name": "total_votes",
          "type": "uint256"
        },
        {
          "indexed": false,
          "internalType": "uint256",
          "name": "likes",
          "type": "uint256"
        },
        {
          "indexed": false,
          "internalType": "uint256",
          "name": "dislikes",
          "type": "uint256"
        },
        {
          "indexed": false,
          "internalType": "uint256",
          "name": "unsure",
          "type": "uint256"
        }
      ],
      "name": "registered_project",
      "type": "event"
    },
    {
      "inputs": [],
      "name": "Owner",
      "outputs": [
        {
          "internalType": "address",
          "name": "",
          "type": "address"
        }
      ],
      "stateMutability": "view",
      "type": "function",
      "constant": true
    },
    {
      "inputs": [
        {
          "internalType": "uint256",
          "name": "",
          "type": "uint256"
        },
        {
          "internalType": "address",
          "name": "",
          "type": "address"
        }
      ],
      "name": "Proj_to_voted",
      "outputs": [
        {
          "internalType": "bool",
          "name": "",
          "type": "bool"
        }
      ],
      "stateMutability": "view",
      "type": "function",
      "constant": true
    },
    {
      "inputs": [],
      "name": "Project_num",
      "outputs": [
        {
          "internalType": "uint256",
          "name": "",
          "type": "uint256"
        }
      ],
      "stateMutability": "view",
      "type": "function",
      "constant": true
    },
    {
      "inputs": [
        {
          "internalType": "uint256",
          "name": "",
          "type": "uint256"
        }
      ],
      "name": "Projects",
      "outputs": [
        {
          "internalType": "string",
          "name": "description",
          "type": "string"
        },
        {
          "internalType": "uint256",
          "name": "total_votes",
          "type": "uint256"
        },
        {
          "internalType": "uint256",
          "name": "likes",
          "type": "uint256"
        },
        {
          "internalType": "uint256",
          "name": "dislikes",
          "type": "uint256"
        },
        {
          "internalType": "uint256",
          "name": "unsure",
          "type": "uint256"
        }
      ],
      "stateMutability": "view",
      "type": "function",
      "constant": true
    },
    {
      "inputs": [],
      "name": "Proposal_limit",
      "outputs": [
        {
          "internalType": "uint256",
          "name": "",
          "type": "uint256"
        }
      ],
      "stateMutability": "view",
      "type": "function",
      "constant": true
    },
    {
      "inputs": [
        {
          "internalType": "address",
          "name": "",
          "type": "address"
        }
      ],
      "name": "Proposed",
      "outputs": [
        {
          "internalType": "uint256",
          "name": "",
          "type": "uint256"
        }
      ],
      "stateMutability": "view",
      "type": "function",
      "constant": true
    },
    {
      "inputs": [
        {
          "internalType": "string",
          "name": "description",
          "type": "string"
        }
      ],
      "name": "add_project",
      "outputs": [],
      "stateMutability": "nonpayable",
      "type": "function"
    },
    {
      "inputs": [
        {
          "internalType": "uint256",
          "name": "proj_id",
          "type": "uint256"
        },
        {
          "internalType": "int256",
          "name": "vote_value",
          "type": "int256"
        }
      ],
      "name": "vote",
      "outputs": [],
      "stateMutability": "nonpayable",
      "type": "function"
    },
    {
      "inputs": [
        {
          "internalType": "uint256",
          "name": "limit_val",
          "type": "uint256"
        }
      ],
      "name": "change_proposal_limit",
      "outputs": [
        {
          "internalType": "uint256",
          "name": "",
          "type": "uint256"
        }
      ],
      "stateMutability": "nonpayable",
      "type": "function"
    },
    {
      "inputs": [],
      "name": "get_project_num",
      "outputs": [
        {
          "internalType": "uint256",
          "name": "",
          "type": "uint256"
        }
      ],
      "stateMutability": "view",
      "type": "function",
      "constant": true
    },
    {
      "inputs": [],
      "name": "get_proposal_limit",
      "outputs": [
        {
          "internalType": "uint256",
          "name": "",
          "type": "uint256"
        }
      ],
      "stateMutability": "view",
      "type": "function",
      "constant": true
    }
  ],
  "bytecode": "0x608060405234801561001057600080fd5b50600160008190555033600260006101000a81548173ffffffffffffffffffffffffffffffffffffffff021916908373ffffffffffffffffffffffffffffffffffffffff16021790555060036006819055506000600581905550611344806100796000396000f3fe608060405234801561001057600080fd5b50600436106100a95760003560e01c8063847edee811610071578063847edee814610168578063a6b3033c14610198578063acf29ad8146101b6578063b4a99a4e146101e6578063b795d55214610204578063fed806bf14610222576100a9565b806321b2416c146100ae57806332bb4445146100e25780635c8b6455146101005780635e44daf31461013057806384785b4a1461014c575b600080fd5b6100c860048036038101906100c39190610b79565b610240565b6040516100d9959493929190610d5d565b60405180910390f35b6100ea6102fe565b6040516100f79190610e37565b60405180910390f35b61011a60048036038101906101159190610b79565b610308565b6040516101279190610e37565b60405180910390f35b61014a60048036038101906101459190610be6565b6103e2565b005b61016660048036038101906101619190610b30565b6106b0565b005b610182600480360381019061017d9190610ba6565b61092e565b60405161018f9190610d42565b60405180910390f35b6101a061095d565b6040516101ad9190610e37565b60405180910390f35b6101d060048036038101906101cb9190610b03565b610967565b6040516101dd9190610e37565b60405180910390f35b6101ee61097f565b6040516101fb9190610d27565b60405180910390f35b61020c6109a5565b6040516102199190610e37565b60405180910390f35b61022a6109ab565b6040516102379190610e37565b60405180910390f35b60036020528060005260406000206000915090508060000180546102639061102f565b80601f016020809104026020016040519081016040528092919081815260200182805461028f9061102f565b80156102dc5780601f106102b1576101008083540402835291602001916102dc565b820191906000526020600020905b8154815290600101906020018083116102bf57829003601f168201915b5050505050908060010154908060020154908060030154908060040154905085565b6000600554905090565b60003373ffffffffffffffffffffffffffffffffffffffff16600260009054906101000a900473ffffffffffffffffffffffffffffffffffffffff1673ffffffffffffffffffffffffffffffffffffffff161461039a576040517f08c379a000000000000000000000000000000000000000000000000000000000815260040161039190610dd7565b60405180910390fd5b816006819055507fb0a3c85c971f6952bb090e84ae175be33953c1ba830ae47bff2b92c5ca93c4c3826040516103d09190610e37565b60405180910390a16006549050919050565b8160016005546103f29190610f55565b811115610434576040517f08c379a000000000000000000000000000000000000000000000000000000000815260040161042b90610e17565b60405180910390fd5b82600015156001600083815260200190815260200160002060003373ffffffffffffffffffffffffffffffffffffffff1673ffffffffffffffffffffffffffffffffffffffff16815260200190815260200160002060009054906101000a900460ff161515146104d9576040517f08c379a00000000000000000000000000000000000000000000000000000000081526004016104d090610df7565b60405180910390fd5b600180600086815260200190815260200160002060003373ffffffffffffffffffffffffffffffffffffffff1673ffffffffffffffffffffffffffffffffffffffff16815260200190815260200160002060006101000a81548160ff0219169083151502179055507fc82e114f2a15bafceba74d8258e24af44f7669e3b633ff8b232674051401a85d8433604051610572929190610e52565b60405180910390a16003600085815260200190815260200160002060010160008154809291906105a190611092565b91905055507fffffffffffffffffffffffffffffffffffffffffffffffffffffffffffffffff8314156105ff576003600085815260200190815260200160002060030160008154809291906105f590611092565b9190505550610671565b60018314156106395760036000858152602001908152602001600020600201600081548092919061062f90611092565b9190505550610670565b600083141561066f5760036000858152602001908152602001600020600401600081548092919061066990611092565b91905055505b5b5b7f030b0f8dcd86a031eddb071f91882edeac8173663ba775713b677b42b51be44b84336040516106a2929190610e52565b60405180910390a150505050565b3360016006546106c09190610f55565b600460008373ffffffffffffffffffffffffffffffffffffffff1673ffffffffffffffffffffffffffffffffffffffff168152602001908152602001600020541115610741576040517f08c379a000000000000000000000000000000000000000000000000000000000815260040161073890610db7565b60405180910390fd5b6040518060a001604052808381526020016000815260200160008152602001600081526020016000815250600360006005548152602001908152602001600020600082015181600001908051906020019061079d9291906109b1565b50602082015181600101556040820151816002015560608201518160030155608082015181600401559050507f72bd7868e5c0cfd12c53fd47582ffea98d52a4508ec57d59c2c586c44198e13e6005548360008060008060405161080696959493929190610e7b565b60405180910390a16005600081548092919061082190611092565b91905055507faf92e78063c53af72b4675287e99462ac6b34c679f0fe34fd41ce747a33b0e5c6005546040516108579190610e37565b60405180910390a1600460003373ffffffffffffffffffffffffffffffffffffffff1673ffffffffffffffffffffffffffffffffffffffff16815260200190815260200160002060008154809291906108af90611092565b91905055507fd903a1085dd333b69c757498d0ca04e00892342a68620b9b3e0d285d5fc025d6600460003373ffffffffffffffffffffffffffffffffffffffff1673ffffffffffffffffffffffffffffffffffffffff168152602001908152602001600020546040516109229190610e37565b60405180910390a15050565b60016020528160005260406000206020528060005260406000206000915091509054906101000a900460ff1681565b6000600654905090565b60046020528060005260406000206000915090505481565b600260009054906101000a900473ffffffffffffffffffffffffffffffffffffffff1681565b60055481565b60065481565b8280546109bd9061102f565b90600052602060002090601f0160209004810192826109df5760008555610a26565b82601f106109f857805160ff1916838001178555610a26565b82800160010185558215610a26579182015b82811115610a25578251825591602001919060010190610a0a565b5b509050610a339190610a37565b5090565b5b80821115610a50576000816000905550600101610a38565b5090565b6000610a67610a6284610f08565b610ee3565b905082815260208101848484011115610a8357610a8261116d565b5b610a8e848285610fed565b509392505050565b600081359050610aa5816112c9565b92915050565b600081359050610aba816112e0565b92915050565b600082601f830112610ad557610ad4611168565b5b8135610ae5848260208601610a54565b91505092915050565b600081359050610afd816112f7565b92915050565b600060208284031215610b1957610b18611177565b5b6000610b2784828501610a96565b91505092915050565b600060208284031215610b4657610b45611177565b5b600082013567ffffffffffffffff811115610b6457610b63611172565b5b610b7084828501610ac0565b91505092915050565b600060208284031215610b8f57610b8e611177565b5b6000610b9d84828501610aee565b91505092915050565b60008060408385031215610bbd57610bbc611177565b5b6000610bcb85828601610aee565b9250506020610bdc85828601610a96565b9150509250929050565b60008060408385031215610bfd57610bfc611177565b5b6000610c0b85828601610aee565b9250506020610c1c85828601610aab565b9150509250929050565b610c2f81610f89565b82525050565b610c3e81610f9b565b82525050565b610c4d81610fdb565b82525050565b6000610c5e82610f39565b610c688185610f44565b9350610c78818560208601610ffc565b610c818161117c565b840191505092915050565b6000610c99603b83610f44565b9150610ca48261118d565b604082019050919050565b6000610cbc603183610f44565b9150610cc7826111dc565b604082019050919050565b6000610cdf602583610f44565b9150610cea8261122b565b604082019050919050565b6000610d02603383610f44565b9150610d0d8261127a565b604082019050919050565b610d2181610fd1565b82525050565b6000602082019050610d3c6000830184610c26565b92915050565b6000602082019050610d576000830184610c35565b92915050565b600060a0820190508181036000830152610d778188610c53565b9050610d866020830187610d18565b610d936040830186610d18565b610da06060830185610d18565b610dad6080830184610d18565b9695505050505050565b60006020820190508181036000830152610dd081610c8c565b9050919050565b60006020820190508181036000830152610df081610caf565b9050919050565b60006020820190508181036000830152610e1081610cd2565b9050919050565b60006020820190508181036000830152610e3081610cf5565b9050919050565b6000602082019050610e4c6000830184610d18565b92915050565b6000604082019050610e676000830185610d18565b610e746020830184610c26565b9392505050565b600060c082019050610e906000830189610d18565b8181036020830152610ea28188610c53565b9050610eb16040830187610c44565b610ebe6060830186610c44565b610ecb6080830185610c44565b610ed860a0830184610c44565b979650505050505050565b6000610eed610efe565b9050610ef98282611061565b919050565b6000604051905090565b600067ffffffffffffffff821115610f2357610f22611139565b5b610f2c8261117c565b9050602081019050919050565b600081519050919050565b600082825260208201905092915050565b6000610f6082610fd1565b9150610f6b83610fd1565b925082821015610f7e57610f7d6110db565b5b828203905092915050565b6000610f9482610fb1565b9050919050565b60008115159050919050565b6000819050919050565b600073ffffffffffffffffffffffffffffffffffffffff82169050919050565b6000819050919050565b6000610fe682610fd1565b9050919050565b82818337600083830152505050565b60005b8381101561101a578082015181840152602081019050610fff565b83811115611029576000848401525b50505050565b6000600282049050600182168061104757607f821691505b6020821081141561105b5761105a61110a565b5b50919050565b61106a8261117c565b810181811067ffffffffffffffff8211171561108957611088611139565b5b80604052505050565b600061109d82610fd1565b91507fffffffffffffffffffffffffffffffffffffffffffffffffffffffffffffffff8214156110d0576110cf6110db565b5b600182019050919050565b7f4e487b7100000000000000000000000000000000000000000000000000000000600052601160045260246000fd5b7f4e487b7100000000000000000000000000000000000000000000000000000000600052602260045260246000fd5b7f4e487b7100000000000000000000000000000000000000000000000000000000600052604160045260246000fd5b600080fd5b600080fd5b600080fd5b600080fd5b6000601f19601f8301169050919050565b7f657863656564696e6720746865207570706572206c696d697420666f72206e7560008201527f6d626572206f662070726f706f7361626c652070726f6a656374730000000000602082015250565b7f796f75206e65656420746f20626520746865206f776e657220746f206578656360008201527f75746520746869732066756e6374696f6e000000000000000000000000000000602082015250565b7f796f7527766520616c726561647920766f74656420666f72207468697320707260008201527f6f6a656374000000000000000000000000000000000000000000000000000000602082015250565b7f70726f6a656374206964206578636565647320746865206e756d626572206f6660008201527f206578697374696e672070726f6a656374732100000000000000000000000000602082015250565b6112d281610f89565b81146112dd57600080fd5b50565b6112e981610fa7565b81146112f457600080fd5b50565b61130081610fd1565b811461130b57600080fd5b5056fea2646970667358221220b73ecea5921e2e80ec86c07021d846a630970d7906a71830a12d3604c58fb48864736f6c63430008070033",
  "immutableReferences": {},
  "source": "// SPDX-License-Identifier: MIT\npragma solidity 0.8.7;\nimport '@openzeppelin/contracts/utils/Address.sol';\nimport '@openzeppelin/contracts/security/ReentrancyGuard.sol';\nimport '@openzeppelin/contracts/utils/math/SafeMath.sol';\n\n\ncontract Voting is ReentrancyGuard{\n\n    using Address for address;\n    using SafeMath for uint256;\n    using SafeMath for int256;\n    \n    //'project' construct \n    struct Project{\n        string description;\n        uint256 total_votes;\n        uint256 likes;\n        uint256 dislikes;\n        uint256 unsure;\n        //mapping(address => bool) voted;\n    \n    }\n\n    //global public variables\n    \n    mapping(uint256 => mapping(address => bool)) public Proj_to_voted;\n    address public Owner;\n    mapping(uint256 => Project) public Projects;\n    mapping(address => uint256) public Proposed;\n    uint256 public Project_num;\n    uint256 public Proposal_limit;\n    \n\n    //initialization \n    constructor(){\n        Owner = msg.sender;\n        Proposal_limit=3;\n        Project_num = 0;\n    }\n\n    //modifiers\n    modifier isOwner(){\n        require(Owner == msg.sender, \"you need to be the owner to execute this function\");\n        _;\n    }\n\n    modifier not_voted_for(uint256 proj_id){\n        require(Proj_to_voted[proj_id][msg.sender] ==false, \"you've already voted for this project\");\n        _;\n\n    }\n\n    modifier less_than_limit(address add){\n        require(Proposed[add]<= Proposal_limit-1, \"exceeding the upper limit for number of proposable projects\");\n        _;\n    }\n\n    modifier existing_proj(uint256 proj_id){\n        require(proj_id <= Project_num-1, \"project id exceeds the number of existing projects!\");\n        _;\n    }\n    //events\n\n    event registered_project(uint256 project_num, string description, uint256 total_votes, uint256 likes, uint256 dislikes, uint256 unsure);\n    event increased_proj_num(uint256 project_num);\n    event increased_proj_proposed(uint256 proposed_num);\n    event Voted(uint256 proj_id, address add);\n    event changed_proposal_limit(uint256 limit_val);\n    event logging_vote(uint256 proj_id, address add);\n\n    //functions\n    function add_project(string memory description) public less_than_limit(msg.sender) {\n        Projects[Project_num] = Project(description, 0,0,0,0); //without mapping variable\n        emit registered_project(Project_num, description, 0,0,0,0);\n        Project_num ++; //increment by 1\n        emit increased_proj_num(Project_num);\n        Proposed[msg.sender]++;\n        emit increased_proj_proposed(Proposed[msg.sender]);\n        \n    }\n\n    function vote(uint256 proj_id, int256 vote_value) public existing_proj(proj_id) not_voted_for(proj_id){\n        Proj_to_voted[proj_id][msg.sender] = true;\n        emit logging_vote(proj_id, msg.sender);\n        Projects[proj_id].total_votes++;\n        if(vote_value==-1){\n            Projects[proj_id].dislikes++;\n        } else if(vote_value==1){\n            Projects[proj_id].likes++;\n        } else if(vote_value==0){\n            Projects[proj_id].unsure++;\n        }\n\n        emit Voted(proj_id, msg.sender);\n\n        \n    }\n\n    function change_proposal_limit(uint256 limit_val) public isOwner() returns (uint256){\n        Proposal_limit = limit_val;\n        emit changed_proposal_limit(limit_val);\n        return Proposal_limit;\n    }\n\n    function get_project_num() public view returns (uint256){\n        return Project_num;\n\n    }\n\n    function get_proposal_limit() public view returns (uint256){\n        return Proposal_limit;\n    }\n\n    \n\n\n\n\n\n\n}",
  "sourcePath": "/home/th/blockchain-developer-bootcamp-final-project/contracts/Voting.sol",
  "compiler": {
    "name": "solc",
    "version": "0.8.7+commit.e28d00a7.Emscripten.clang"
  },
  "schemaVersion": "3.4.3",
  "updatedAt": "2021-11-19T05:19:30.211Z",
  "networkType": "ethereum",
  "devdoc": {
    "kind": "dev",
    "methods": {},
    "version": 1
  },
  "userdoc": {
    "kind": "user",
    "methods": {},
    "version": 1
  }
}